:10000000C03800207DB90000F1190100D1B900000D
:10001000D1B90000D1B90000D1B900000000000042
:10002000000000000000000000000000E5B6000035
:10003000D1B900000000000091B60000DD190100F8
:100040003DB90000851F01003DB900003DB9000029
:100050003DB900003DB900003DB900003DB90000C8
:100060004D1F01003DB900003DB900006B1F0100AC
:100070003DB900003DB900003DB900003DB90000A8
:100080003DB900003DB900003DB900003DB9000098
:100090003DB900003DB900003DB900003DB9000088
:1000A0003DB900003DB900003DB900003DB9000078
:1000B0003DB900003DB900003DB900003DB9000068
:1000C0003DB900003DB900003DB900003DB9000058
:0C00D0003DB900003DB900003DB9000042
:1000DC0053B94AB9002908BF00281CBF4FF0FF31A3
:1000EC004FF0FF3000F06CB9ADF1080C6DE904CEA7
:1000FC0000F006F8DDF804E0DDE9022304B07047F7
:10010C002DE9F047089E0D4604468E46002B40F024
:10011C0082808A42174646D9B2FA82F24AB1C2F1BB
:10012C00200105FA02F320FA01F1974041EA030E8F
:10013C0094404FEA1748230CBEFBF8FCB9B208FBFD
:10014C001CEE43EA0E430CFB01F098420AD9FB1853
:10015C000CF1FF3580F01681984240F21381ACF11E
:10016C00020C3B441B1AA4B2B3FBF8F008FB10338F
:10017C0044EA034400FB01F1A14209D93C1900F106
:10018C00FF3380F00181A14240F2FE8002383C44F2
:10019C00641A40EA0C4000211EB1D4400023C6E989
:1001AC000043BDE8F08702B9FFDEB2FA82F2002A02
:1001BC004FD1CB1B4FEA174E1FFA87F80121B3FB27
:1001CC00FEFC250C0EFB1C3345EA034508FB0CF327
:1001DC00AB4207D97D190CF1FF3002D2AB4200F2D1
:1001EC00E7808446ED1AA3B2B5FBFEF00EFB10556A
:1001FC0043EA054408FB00F8A04507D93C1900F177
:10020C00FF3302D2A04500F2D7801846A4EB0804B5
:10021C0040EA0C40C0E78B4208D9002E00F0AF80BA
:10022C000021C6E900050846BDE8F087B3FA83F162
:10023C0000294BD1AB4202D3824200F2B780841A20
:10024C0065EB030301209E46002EAAD0C6E9004EA2
:10025C00A7E7C2F1200C01FA02F3974020FA0CF048
:10026C004FEA174E21FA0CFC1843BCFBFEF1050CAF
:10027C000EFB11CC1FFA87F845EA0C4501FB08F37D
:10028C00AB4204FA02F409D97D1901F1FF3C80F06C
:10029C008B80AB4240F2888002393D44EB1A85B228
:1002AC00B3FBFEF00EFB103345EA034500FB08F3ED
:1002BC00AB4207D97D1900F1FF3C71D2AB426FD92B
:1002CC0002383D44EB1A40EA014178E7C1F1200CB9
:1002DC008B4022FA0CF71F4320FA0CF405FA01F3B9
:1002EC004FEA174E25FA0CF51C43230CB5FBFEF90F
:1002FC001FFA87F80EFB195543EA054509FB08FA66
:10030C00AA4502FA01F200FA01F308D97D1909F1A4
:10031C00FF3047D2AA4545D9A9F102093D44A5EBC6
:10032C000A05A4B2B5FBFEF00EFB105544EA0544D9
:10033C0000FB08F8A04507D93C1900F1FF352DD278
:10034C00A0452BD902383C4440EA0940A4EB0804F0
:10035C00A0FB02894C45C6464D4619D316D05EB15A
:10036C00B3EB0E0264EB050404FA0CFCCA404CEA35
:10037C000202CC40C6E900240021BDE8F0873146DA
:10038C0030460EE7AC46EDE6184601E74345E6D2AB
:10039C00B8EB020E69EB07050138E0E72846D3E716
:1003AC0060468FE78146BAE7614677E708464BE738
:1003BC00ACF1020C3D4415E702383C4426E700BF83
:1003CC00704700BFF8B515460A4A1C4656682EB150
:1003DC0001B02A46B446BDE8F040604700208DF8D5
:1003EC000000684606F03EFF9DF80000281A2070B9
:1003FC000020F8BD00000020014800787047000084
:10040C000800002005490A78904201D3002070476B
:10041C00496800EBC00001EB800070470800002029
:10042C0070B50546202A27D019481A4C00EB831CBE
:10043C000CEB420004EB8303202922D00CEB41018E
:10044C0040784C784870204601460CEB41009142B4
:10045C0005704078F8D193F82220202A1ABF0CEBB3
:10046C004202547083F8214020220CEB410C8CF892
:10047C00012083F8221070BD40F29121702003F00E
:10048C007FF893F82040407883F82000DBE70000E9
:10049C002C080020AC0800202DE9FF4F0C464989A0
:1004AC0087B001F5E1611546814200F2DA8005AAB8
:1004BC0002A902F057F802980A9F284420F07F40C6
:1004CC000490A948A94E00EB8700039090F82050A7
:1004DC002020E9460DF104088DF8000006F5407A5D
:1004EC00202D18BF0AEB871B26D000BF05EB45005B
:1004FC0006EBC0002168C268891A0902CA1701EB11
:10050C0012610830091217D4618971B1418961B93E
:10051C0000F0B4FD02F00AF82168081A0002C117B5
:10052C0000EB11600012332806DB0BEB450089F859
:10053C0000504578202DD9D199F8000088F800009A
:10054C00A146202D1CBF8A4800EB871B00F00881B8
:10055C0005EB450106EBC10AD9F80410DAF80820BE
:10056C004846511A0902CA1701EB12610AF1080731
:10057C00091215D47989002900F0F28041890029EB
:10058C0040F0EE8000F07AFD01F0D0FF3968081AD7
:10059C000002C11700EB11600012332880F2E080DA
:1005AC0088F800509AF8141099F80C00814206D97A
:1005BC000BEB45004578202DCAD100F0D1B89DF841
:1005CC00040000EB400006EBC005688AEF680028C9
:1005DC003FD16089E8B3A86806F064FE698A2A7C7A
:1005EC001144491C634A4318904204D940F21661E5
:1005FC00702002F0C5FF6048814204DD40F21761B3
:10060C00702002F0BDFF5D48814204DA4FF4C361F3
:10061C00702002F0B5FF5A489842DCBF03F5F7038F
:10062C00A3F1F85305DD002BBCBFA3F5F70303F1D1
:10063C00F853184601F07AFF20F07F40391A09026E
:10064C00CA1701EB126109123329BCBF333020F0F9
:10065C007F470498381A0002C11700EB1160001292
:10066C0003D40BB00020BDE8F08FD4E90010401A81
:10067C00384427F07F4120F07F40C4E900100398F4
:10068C00DDF828806F4690F8205020200DF1040AE8
:10069C008DF80000202D1CBF354800EB881924D0A4
:1006AC0005EB450006EBC0002268C168511A09022F
:1006BC00CA1701EB12610830091216D4618971B1A5
:1006CC00418961B900F0DAFC01F030FF2168081AA9
:1006DC000002C11700EB11600012332805DB09EB97
:1006EC0045003D704578202DDAD138788AF8000025
:1006FC002746202D1CBF1E4800EB881B30D005EB75
:10070C00450106EBC1097968D9F808203846511A19
:10071C000902CA1701EB126109F10808091212D477
:10072C00B8F80A10E1B14189D1B900F0A7FC01F089
:10073C00FDFED8F80010081A0002C11700EB11607A
:10074C00001233280CDA8AF8005099F81400397B1F
:10075C0088427FF634AF0BEB45004578202DCED187
:10076C000BB00120BDE8F08FAC0800202C05002058
:10077C002C080020FF7F841E0020A10700E05EF8FB
:10078C000080841E2DE9F05F04463C480E4600EBC9
:10079C0086003B4F90F820502020984692461070CF
:1007AC0007F54079202D18BF09EB861B28D000BF18
:1007BC0005EB450007EBC00000F10801C06822689A
:1007CC00101A0002C21700EB1260001218D46089D4
:1007DC0078B1488968B9084600F050FC01F0A6FED3
:1007EC002168081A0002C11700EB116000123328AF
:1007FC0006DB0BEB45008AF800504578202DD7D14D
:10080C009AF8000088F80000202D18BF09EB861A12
:10081C0030D005EB450107EBC1096168D9F8082018
:10082C002046511A0902CA1701EB126109F1080698
:10083C00091210D47189E9B14189D9B900F01EFCB3
:10084C0001F074FE3168081A0002C11700EB116048
:10085C00001233280EDA88F8005099F81400217B26
:10086C00884202D80020BDE8F09F0AEB450045788D
:10087C00202DCED10120BDE8F09F0000AC08002057
:10088C002C0500202DE9F74F4FF0000898B01646C4
:10089C000D46C34602F0C2F80446012D18BF022DC6
:1008AC0005D040F693114FF0700002F069FEFD493F
:1008BC0001200860FC498968086000200C90401EEB
:1008CC000E90FA4906EB460001EBC00308330FAF5C
:1008DC000FCB87E80F000FA800F0D0FB0D90F3486A
:1008EC00BDF84690B0F89C03ADF84C00B9F1000F80
:1008FC0014BF4FF0010A4FF0000A0F981490BAF190
:10090C00000F09D0EA4890F82C0028B902F0D4FD69
:10091C00002808BF012700D00027E64800221592C6
:10092C0000781646012818BF032840D1E148B0F8DA
:10093C000280A8EB09001590C84538D90D9B6FEAC9
:10094C000801DFF874E358180DF10C0C17AA734565
:10095C0004D940F21661702002F012FED74B994276
:10096C0004DD40F21761702002F00AFED44B99426C
:10097C0004DA4FF4C361702002F002FED1498142C7
:10098C00DCBF00F5F700A0F1F85005DD0028BCBF76
:10099C00A0F5F70000F1F850614601F0E3FD039873
:1009AC000F9920F07F400390081A20F07F42002F0F
:1009BC0018BF322604D19DF84C00002818BF02261F
:1009CC00B4F1807F08D00F98001B0002C11700EB18
:1009DC0011600012012802DA042118980BE047B1CB
:1009EC00B34890F82D0020B19DF84C00061C18BFA0
:1009FC00022620460121B9F1000F02D0159B1E2BB7
:100A0C0002DA9DF84C3013B14FF0010B491E8B19D3
:100A1C00A8499DF84DE0097815910F99891A21F094
:100A2C007F4CACEB00010902CE1701EB16610912E9
:100A3C00994218DB002A18BFCDF83CC00F9E0597D1
:100A4C00002701F0E5FE301A0002C11700EB11601F
:100A5C0000123E283FDA012D20D0701E059920F09F
:100A6C007F4019B32DE082B1BEF1000F04BF159980
:100A7C0003290AD027B99DF84C10002918BF9B1EDA
:100A8C0000228DF84C209046C7E707BB9DF84C1010
:100A9C00E9B100218DF84C109B1EBEE7B4F1807FAC
:100AAC0020D140F60C11702002F06AFDB4F1807F69
:100ABC0007D0211A0902CA1701EB12610912042985
:100ACC0003DD044601F0AAFE0CE000290ADD1BB090
:100ADC000020BDE8F08F701E20F07F44204601F00E
:100AEC009DFE5746B4F1807F28D00F98DDF840C0AA
:100AFC00001B8BF00103744A20F07F40ACEB040C1C
:100B0C002CF07F4C834298BFB0F5800FDFD262454A
:100B1C00DDD3204606F0C6FB67490D9A4B1C161A0E
:100B2C00B6EB930F24BFA0EB020CBCEB930F10D3CE
:100B3C00B14208D2081A1044461C0AE040F62B2198
:100B4C00702002F01DFD61452CD2891A0844401C0E
:100B5C0046425748807F50B3284645464FF0000B1D
:100B6C00D846012805D0022002F0A0F8012002F09E
:100B7C009DF8A9452CD2A6EB05014FF001034FF0CF
:100B8C0003024FF0020001F0C9FF002808BF4FF02C
:100B9C000108B9F1000F35D00123A6EB090103229E
:100BAC00184623E040F60B31702002F0E9FCC145F9
:100BBC0034BF40464846BBF1000F14BF00211E2134
:100BCC000844B042C8DB40F63E21702002F0D8FC4D
:100BDC0010D90123A6EB09010322184601F09EFF50
:100BEC0028B37DB1711B01230322022001F096FF73
:100BFC00E8B107E055EA090004D040F67611702000
:100C0C0002F0BEFC012303223146002001F086FFD6
:100C1C0068B10125B8F1000F03D014980F908DF82E
:100C2C004CB0DFF8A880BAF1000F0ED109E0022019
:100C3C0002F03CF8012002F039F81BB00020BDE8AE
:100C4C00F08F1B4890F82D0000B14FB3DFF860A077
:100C5C009AF82C0018B102F0F7FA8AF82CB007B306
:100C6C00A4F1320020F07F414FF40020C8F80000BE
:100C7C0000230322052001F051FF68B34FF080449C
:100C8C00052002F0D9F81249C1F81005C1F8144535
:100C9C001049E0120860064C94F82D00F0B35BE0AC
:100CAC001BE01FE008050040100000202C05002070
:100CBC00AC08002012000020FF7F841E0020A1073A
:100CCC0000E05EF80080841EFFFF3F0008F5014045
:100CDC0098F0014004F5014035E0DFF8B8A09AF82F
:100CEC002C0058B32B4C94F82D0050B14FF400202D
:100CFC00C8F80000052001F0D9FF02F00DFB84F8C4
:100D0C002DB00CAC244894E80E10C0F88013C0F839
:100D1C008423C0F88833C0F88CC300E018E010AC12
:100D2C0094E80E10C0F89013C0F89423C0F89833D0
:100D3C00C0F89CC31BB00120BDE8F08F02F0A0FAF4
:100D4C008AF82C508BE740F25131702002F018FCDD
:100D5C0002F0D4FA84F82D50A6EB0900A0F1190189
:100D6C00002904DC40F66821702002F009FC032203
:100D7C000123104601F0D2FE38B108488068C0F853
:100D8C0000B00748C0F800B0BBE740F673217020F4
:100D9C0002F0F6FBAC0800202C050020100000200F
:100DAC00080500402DE9F043064683B0087890739F
:100DBC00CF7A5773887A10730889144650810D4680
:100DCC000A785F4999464FEA810C4B42ACF1010815
:100DDC005AB1C043D5F8048004F1080288423DDDC5
:100DEC0040F21761702002F0CBFBEE686D686FEA81
:100DFC00000904F1080206EB0900464504D940F24B
:100E0C001661702002F0BCFB8945E9DC994528DBB2
:100E1C008445DCBF00F5F700A0F1F85005DD002893
:100E2C00BCBFA0F5F70000F1F850214601F09AFB89
:100E3C00206820F07F417019401C2160002F08BFF2
:100E4C007A3003D0012F08BF44302DD101F06EFB56
:100E5C0020F07F40606003B0BDE8F083014698420B
:100E6C0004DA4FF4C361702002F08AFB8445DCBFC6
:100E7C00A1F1F450A0F5902005DD0028BCBF01F1D4
:100E8C00F45000F59020214601F06CFB2068002FF7
:100E9C0020F07F4108F10100216008BF7A3008D0B2
:100EAC00012F08BF443004D040F2BE61702002F024
:100EBC0067FB01F03BFB20F07F416160608901AA78
:100ECC00694601F04FFB1F4890F82F10202923D0C2
:100EDC000069401D20F07F40D4E90021891A206070
:100EEC00084420F07F4060604B4632462146E8685B
:100EFC00FFF7D2FA00281CBF03B0BDE8F083D4E999
:100F0C000010401A304426F07F4120F07F40C4E9A5
:100F1C00001003B0BDE8F083608906F1090720B129
:100F2C0002F0CAFA002808BF323707484178009807
:100F3C00814284BF081A074427F07F40CCE70000A9
:100F4C000020A107AC0800201200002010B5154CA1
:100F5C0094F82F00202818BF10BD94F82E2004EB15
:100F6C00820090F82010202917D0DFF83CC00CEB41
:100F7C00821303EB41035B7880F82030012380F867
:100F8C00233084F82B3084F82F10022000F0B0F8B6
:100F9C00002084F82A00A07710BD40F29E3170200A
:100FAC0002F0EEFAAC0800202C0800202DE9F05FCE
:100FBC00DFF8B88098F82E5008EB850090F82140A7
:100FCC00202C08BFBDE8F09FDFF8A4B0DFF8A4A088
:100FDC00AAF540790AEB8517072617F814000128A3
:100FEC000ED0042808BF02260AD005280CBF032601
:100FFC00062805D040F6D8014FF0700002F0C0FA78
:10100C00BBF1000F18BFAFF30080EFF3108072B686
:10101C0007EB44014A7808EB850181F8212091F80F
:10102C002220A24204BF202281F82220B8B12A46F5
:10103C002146012000F05CF804EB440109EBC100EF
:10104C0059F8312040683146904798F82E5008EBFB
:10105C00850090F82140202CBCD1BDE8F09F0648BB
:10106C00002818BFAFF3008062B6E0E7AC080020A0
:10107C00000000002C0800200000000010B5044601
:10108C00006806F00FF902466089217A144B084477
:10109C00411C50189A4204D940F21661702002F09B
:1010AC006FFA104A914204DD40F21761702002F091
:1010BC0067FA0D4A914204DA4FF4C361702002F0D2
:1010CC005FFA0A498142DEBF00F5F700A0F1F85043
:1010DC0010BD0028BCBFA0F5F70000F1F85010BD02
:1010EC00FF7F841E0020A10700E05EF80080841EB4
:1010FC00DFF854C010B500230CEB821C07281ED25D
:10110C00DFE800F0050505050404040001230CF8D4
:10111C001100002B08BF10BD0C4800EB820292F8A6
:10112C00220020280EBF82F821100CEB40004170E9
:10113C0020200CEB4103587082F8221010BD40F2B5
:10114C006721702002F01CFA2C080020AC0800204B
:10115C002DE9F34F83B05C48049900EB81000190BA
:10116C0090F8204003982546012818BF022805D086
:10117C0040F6AF214FF0700002F002FA0027202D4C
:10118C004AD0514800910026807F002808BF0226D3
:10119C0001F03EFBDFF838A104EB44010AEBC1017E
:1011AC00DFF828918A68C968121A091A22F07F425E
:1011BC0021F07F41964298BFB2F5800F01D289454C
:1011CC0028D2444A009902EB811B22460BEB4201C8
:1011DC004C78202C16D004EB44010AEBC10CDCF843
:1011EC000880DCF80CC0A8EB000828F07F48ACEBBA
:1011FC00000121F07F41464598BFB8F5800FE4D23D
:10120C008945E2D3202A05D020210420009BFFF73A
:10121C0007F90446AC4215D12F48002818BFAFF38C
:10122C00008001F0F5FA284C94F8301020290DD0EC
:10123C00E168821C511A0902CA1701EB12610912EA
:10124C00002903DD05B00020BDE8F08F202D0DD066
:10125C002A460399FFF716FB58B3019880F82370C0
:10126C0084F8305005B00120BDE8F08F94F82C00C4
:10127C0018B101F0E9FF84F82C7094F82D0050B1EE
:10128C0016494FF400200860052001F00FFD02F014
:10129C0043F884F82D70042001F008FD01F06EFD78
:1012AC00202084F830000E48806807600D480760E5
:1012BC00D8E72A4620210420049BFFF7B1F805B09B
:1012CC000020BDE8F08F0000AC080020FFFF3F00BD
:1012DC002C0500202C0800200000000008F501401F
:1012EC0010000020080500402DE9F04F5B4E8146B0
:1012FC0085B096F82F008A4620284DD096F82F00FE
:10130C0006F10C0400EB4000A6F5607808EBC00772
:10131C0020208DF8000096F82E0003AA06EB800022
:10132C0001A990F82050306902903068484401F0CF
:10133C0019F9F86801994A4A0844A9F164019142E3
:10134C002FD8B968411A21F07F41B1F5800F28D20E
:10135C0020F07F406060304684F80CA090F82E009E
:10136C00EA46202D1CBF3F4901EB801B3CD005EB0E
:10137C00450008EBC0076068BA682146101A0002E5
:10138C00C21700EB126007F1080600121BD470891B
:10139C0050B3488948B127E040F67331702002F011
:1013AC00EFF805B00120BDE8F08F2046FFF766FE90
:1013BC0001F0BCF83168081A0002C11700EB11608B
:1013CC000012332810DA8AF80050397D207B8142D4
:1013DC0005D80298606005B00220BDE8F08F0BEBD9
:1013EC0045004578202DC2D1052001F05FFC1B4C37
:1013FC004FF0FF30A06094F82E309DF80020202193
:10140C00202A13BF052004EB830090F82000FFF77F
:10141C0007F894F82E20134901EB821194F82F2031
:10142C0001EB42014870206848442060012084F898
:10143C002B00607E012805D12069401E20F07F40E2
:10144C0001F086FA9DF80000202803D00648407869
:10145C0002F066F905B00020BDE8F08FAC08002062
:10146C009C1FA1072C080020100000200246144BE2
:10147C0010B508449A4204D940F21661702002F06B
:10148C007FF8104A914204DD40F21761702002F09F
:10149C0077F80D4A914204DA4FF4C361702002F0E0
:1014AC006FF80A498142DEBF00F5F700A0F1F85051
:1014BC0010BD0028BCBFA0F5F70000F1F85010BD1E
:1014CC00FF7F841E0020A10700E05EF80080841ED0
:1014DC00104A0B1A02F1010CB3EB9C0F3CBF1846DF
:1014EC00704710B5441AB4EB9C0F3CBF184610BDA6
:1014FC009A4203D2101A0844401C10BDA24204D2D6
:10150C00511A0844401C404210BD40F60B3170206B
:10151C0002F036F8FF7F841E0E4910B591F82F00AB
:10152C00202812D091F82F00A1F5607200EB40003A
:10153C0002EBC00091F82F10406801EB410152F80A
:10154C003120BDE810400421104740F6BB0170204B
:10155C0002F016F8AC08002070B56A4D6A490126F5
:10156C0005F5607408287DD2DFE800F0046197A9C6
:10157C00C643AEB394F82C0018B901F081FE84F880
:10158C002C60E08A10B101F097FF88B1FFF7DEFC08
:10159C0084F82960A168B1F1FF3F05D00123032233
:1015AC00052001F0BBFA40B1607E012810D109E0A2
:1015BC0040F66F01702001F0E3FF40F674017020DB
:1015CC0001F0DEFF2069401E20F07F4001F0C0F9E1
:1015DC0094F82F0094F82F1000EB400005EBC0009E
:1015EC00406801EB410155F83120BDE87040012104
:1015FC001047FFF7ABFC4FF0FF30A06094F82900C8
:10160C0080B194F82F0094F82F1000EB400005EBFC
:10161C00C000406801EB410155F83120BDE8704035
:10162C000621104740F68501702001F0A9FFFFF755
:10163C008DFC84F8286001F03FFF18B194F82C0061
:10164C0028B108E040F69501702001F099FF01F0F7
:10165C0017FE84F82C6094F82D0068B14FF400202C
:10166C002A4900E048E00860052001F01FFB01F06A
:10167C0053FE002084F82D0094F82F0094F82F10BE
:10168C0000EB400005EBC000406801EB410155F850
:10169C003120BDE870400021104701F0B9FBE08A11
:1016AC0010B101F009FF28B119480078032808BFD0
:1016BC00667770BD4FF40A61702001F061FF154828
:1016CC0006608868066070BD0878BDE8704002F05E
:1016DC0027B8FFF73BFC94F82F0094F82F1000EB81
:1016EC00400005EBC000406801EB410155F831208A
:1016FC00BDE870400521104740F6B301702001F0A1
:10170C003FFF00002C0500201000002008F50140D0
:10171C001200002008050040034810B5407805F081
:10172C00C1FD80B210BD0000120000202DE9F34F66
:10173C008246D1488BB00068D04DC005C00D0ED08C
:10174C00103840B20028B8BF00F00F0000F1E020C4
:10175C00ACBF90F8000490F8140D40090DD00C9813
:10176C004FF0000B0078002818BF012818D040F269
:10177C005C714FF0700001F003FF95F82F004FF0F3
:10178C00010B202807D00C98007848B14FF4EB617E
:10179C00702001F0F5FE40F25571702001F0F0FE62
:1017AC00B74C24B1002140F25F70AFF30080B54913
:1017BC000AEB4A0001EBC0004FF00108009024B185
:1017CC00002140F26770AFF30080B8F1000F09D030
:1017DC0095F82E604FF0000985F82B90BBF1000FA7
:1017EC0007D02EE0A848002818BFAFF3008062B6DF
:1017FC00EEE73746012020EA0706A448402200EB1A
:10180C00871100EB861005F0BBFE24B1002140F2DD
:10181C00DA50AFF3008005EB870105EB8600096A0F
:10182C00016224B1002140F2DE50AFF3008024B1FC
:10183C00002140F27170AFF3008095F82B00002866
:10184C00BDD124B1002140F27B70AFF3008000F0D9
:10185C00DFFF8046334606AA0C99FFF7A3FA24B1A2
:10186C00002140F28270AFF30080884906A801EB9A
:10187C00861717F81A10012918BF02293ED10699AC
:10188C00079BA1EB0801824A21F07F41A3EB0803DF
:10189C0023F07F4302296AD3B1F5800F67D29A42B5
:1018AC0065D34FF0010901AB05AA3146FEF76AFF7B
:1018BC00002864D09DF814109DF8042033468A4209
:1018CC0061D00520FEF7ACFD4FEA000107EB4A00A2
:1018DC0041709DF81400202803BF05EB860080F8AA
:1018EC0020A080F8239007EB400018BF80F801A0DF
:1018FC00324651465FF00300FFF7FAFB05EB86001A
:10190C0090F8237024B1002140F28970AFF300806D
:10191C006048002818BFAFF30080EFF3108872B650
:10192C0024B1002140F28F70AFF3008095F82B00AA
:10193C0000287FF444AF24B1002140F29770AFF33C
:10194C0000800DF1180E00989EE80E1000F10800B2
:10195C00B9F1000F80E80E1042D024B1002140F202
:10196C00A470AFF30080BBF1000F2BD115E0324611
:10197C0051460420FFF7BCFB4FF00109BEE732468D
:10198C0051460420B8E7202919BF07EB41004178E4
:10199C0005EB860090F8201098E79FB195F82F0082
:1019AC0020280FD124B1002140F2A970AFF30080A0
:1019BC0031460220FFF7CCFB20B90C980078E8B335
:1019CC00012849D024B1002140F2C670AFF3008049
:1019DC0085F82E60012085F82B0000BF4FF001091F
:1019EC0024B1002140F2CF70AFF30080B8F1000FAA
:1019FC003BD024B1002140F2D370AFF30080B9F199
:101A0C00000F11D095F82E0005EB800090F8210006
:101A1C00202809D024B1002140F2DA70AFF3008005
:101A2C001D48407801F07CFE24B1002140F2DF70AB
:101A3C00AFF300800DB04846BDE8F08FFFE724B14E
:101A4C00002140F2B170AFF3008095F82E20514682
:101A5C000420FFF74DFBC1E7002C3FF4B0AE002192
:101A6C0040F2BC70AFF30080A9E60748002818BF0D
:101A7C00AFF3008062B6BCE704ED00E0AC080020D8
:101A8C00000000002C050020000000002C080020A5
:101A9C00FFFF3F0000000000100000202DE9F14F77
:101AAC00A34886B00068C005C00D11D0103840B2F4
:101ABC000028B8BF00F00F0000F1E020ACBF90F898
:101ACC00000490F8140D400908BF4FF0010901D033
:101ADC004FF000090698007800284FF000001CBF5A
:101AEC0007B0BDE8F08FDFF84CA2934D934C4FF04C
:101AFC00000B049025B1002140F26560AFF300802B
:101B0C0094F82E6084F82BB04FF0000825B100211A
:101B1C0040F26A60AFF30080B9F1000F1DD1374677
:101B2C00012020EA07068648402200EB871100EBD3
:101B3C00861005F025FD25B1002140F2DA50AFF3F7
:101B4C00008004EB870104EB8600096A016225B171
:101B5C00002140F2DE50AFF3008025B1002140F2AD
:101B6C007260AFF3008000F053FE074633466A46BE
:101B7C000699FFF717F925B100214FF4CF60AFF3A9
:101B8C00008094F82F00202814D020690099091A9D
:101B9C000902CA1701EB126109120BD5DDE900210C
:101BAC00891A20F07F42084420F07F40CDE90020C4
:101BBC004FF001084DB1002140F28260AFF300807C
:101BCC0000214FF4D160AFF3008000980199C01B45
:101BDC00C91B20F07F4021F07F41B0F5800F05D26A
:101BEC008A4503D3B9F1000F0CD103E0B9F1000F12
:101BFC0038D094E033463A4669465248FEF74CFCDE
:101C0C0048EA0008B8F1000F22D0009805F04AFB12
:101C1C00BDF80A109DF808204B4B1144491C421882
:101C2C00984241D8474881425ADC404281425FDBAE
:101C3C00581C9042DCBF02F5F702A2F1F85205DD08
:101C4C00002ABCBFA2F5F70202F1F8520698C26056
:101C5C0001200490002D62D0002140F29B60AFF374
:101C6C0000805CE0BDF80A0005AA04A900F07AFC2B
:101C7C0094F82F0020281CD02069401D20F07F40B4
:101C8C00DDE90021891A014421F07F41CDE90001F1
:101C9C0005F008FBBDF80A109DF808202A4B1144EA
:101CAC00491C4218984218D940F21661702001F074
:101CBC0067FCBDF80A0007F1090620B101F0FCFB36
:101CCC00002808BF3236214841780498814284BFED
:101CDC00081A064426F07F40D2E71A48814204DDF8
:101CEC0040F21761702001F04BFC1948814204DA74
:101CFC004FF4C361702001F043FC16489042DCBFE6
:101D0C0002F5F702A2F1F85205DD002ABCBFA2F5DC
:101D1C00F70202F1F8520698C2600120049094F880
:101D2C002B0000287FF4E6AE049807B0BDE8F08FD6
:101D3C0004ED00E0FFFF3F0000000000AC080020B5
:101D4C002C0800200020A107FF7F841E1200002019
:101D5C0000E05EF80080841E2DE9F14F804D8CB0C0
:101D6C0095F82E000020099001207E4C4FF00008C1
:101D7C00A5F180078346089024B1002140F2EE7053
:101D8C00AFF30080089890B385F82B8024B1002124
:101D9C0040F2F370AFF3008095F82E9040222BEABE
:101DAC00090607EB861007EB8911824605F0E8FB64
:101DBC0024B1002140F2DA50AFF3008005EB86002D
:101DCC0005EB89010090096A016224B1002140F2FF
:101DDC00DE50AFF3008095F82B0080B1002C1CBFB7
:101DEC00002140F2F970C7D0AFF30080C4E7FFE7E1
:101DFC005D48002818BFAFF3008062B6C4E724B179
:101E0C00002140F2FD70AFF300800C981AF810001E
:101E1C00032878D1DDF80090CDF818900C9999F83A
:101E2C002000884214BF4FF0000A4FF0010A09F15C
:101E3C00200C8646202207EB861303E0024603EBB8
:101E4C0042004078884202D020280AD0F6E72028A9
:101E5C0007D0864507D103EB4E0040788CF8000084
:101E6C0007E040460CE003EB400003EB42014078F6
:101E7C00487024B1002140F24450AFF30080584622
:101E8C0010EA0A0F18BF89F823B0E0B324B100217F
:101E9C0040F60200AFF30080324601200C99FFF7A8
:101EAC0027F9069890F8239024B1002140F60D00F4
:101EBC00AFF300802D48002818BFAFF30080EFF37C
:101ECC00108072B6089024B1002140F61200AFF3D6
:101EDC00008095F82B0038B1002C1CBF002140F677
:101EEC0016003FF449AF7FE7B9F1000F08D095F821
:101EFC002F00202804D131460220FFF729F9F8B130
:101F0C0034B1002100E009E040F62A00AFF3008074
:101F1C0085F82E6085F82BB00120099024B10021A2
:101F2C0040F63300AFF30080089888B124B100214B
:101F3C0040F63700AFF3008009980DB0BDE8F08F84
:101F4C00002CF1D0002140F62500AFF30080E6E72D
:101F5C000548002818BFAFF3008062B6E6E7000022
:101F6C00AC08002000000000000000000000000091
:101F7C0010B5202811D20E4991F82E30A1F1800213
:101F8C0002EB831C1CF810303BB191F82E3002EBA5
:101F9C00831212F81020012A01D0002010BD91F8F4
:101FAC002E2001460020FFF7A3F8012010BD0000F1
:101FBC00AC0800202DE9F05F7E4E804696F82E008E
:101FCC00A6F1800707EB801010F81800002865D0E8
:101FDC0096F82E90784D25B1002140F6B930AFF32C
:101FEC00008007EB891414F81800012818D0C0B22F
:101FFC0004281CBF0528062855D02DB14FF0000130
:10200C0040F6C530AFF3008001F0E0FB25B10021B4
:10201C0040F6C930AFF3008014F818000128E6D15F
:10202C00012425B100214FF43D60AFF30080A4B32F
:10203C00002086F82B0025B1002140F6D530AFF3F7
:10204C00008096F82EB0012020EA0B0907EB8B11CB
:10205C0007EB8910402205F093FA25B1002140F2DC
:10206C00DA50AFF3008006EB8B0006EB890A006AAE
:10207C00CAF8200025B1002140F2DE50AFF30080F9
:10208C0096F82B00E0B1002D1CBF002140F6DB3090
:10209C00C7D000BFAFF30080C3E70AE04FF43B6149
:1020AC00702001F06DFA4A4641460120FFF720F8F6
:1020BC00ACE74248002818BFAFF3008062B6B7E720
:1020CC0025B1002140F6DF30AFF300809AF82130C3
:1020DC000AF1210140461C464FF0200B07EB8912F8
:1020EC000AF1220A04E0A34602EB4B0C9CF80140D7
:1020FC00844202D0202C2BD0F5E7202C28D0A342F0
:10210C0004D102EB43004078087005E002EB440078
:10211C0002EB4B0140784870BAF1000F11D025B199
:10212C00002140F23C50AFF300809AF80000A0422E
:10213C0007D125B1002140F23F50AFF300808AF85F
:10214C0000B05DB1002140F24450AFF3008000E0DC
:10215C0025B1002140F6E330AFF300801848002889
:10216C0018BFAFF30080EFF3108472B696F82B0013
:10217C0038B1002D1CBF002140F6E9303FF451AFBF
:10218C0088E786F82E90012086F82B0054B1002D9C
:10219C0008BFBDE8F09F002140F6F630AFF3008099
:1021AC00BDE8F09F0548002818BFAFF3008062B669
:1021BC00EDE70000AC08002000000000000000006B
:1021CC000000000070B50D46064601F063F90F489B
:1021DC0090F82E200024803800EB821010F8141098
:1021EC0029B1611CCCB2202CF8D3202070BD08483A
:1021FC0004EB440140F8316000EBC100214645601E
:10220C000120FEF775FF204670BD0000AC080020D1
:10221C002C0500202DE9F04F83B000F0F9FA0546AB
:10222C0000F0ACFD634CA068B0F1FF3F1CBF4FF059
:10223C00FF30A060A07FDFF880B1A8B9D4E903011A
:10224C00081A0002C11700EB116000124FF40C7158
:10225C0005F055F821690844281A0002C11700EB53
:10226C0011600012C00F0BD0607EE8B100F0DCFBF7
:10227C0094F82A00F0B140F25441702001F080F93A
:10228C0094F82F0094F82F1000EB40000BEBC000DB
:10229C00406801EB41015BF831200821904740F286
:1022AC004341702001F06CF9E81C20F07F4000F0F5
:1022BC00B5FADDE74FF0010A84F82AA094F82F0054
:1022CC00202824D094F82F80202084F82F0084F824
:1022DC003000002684F8286084F82960374826608E
:1022EC000078022816BF032801200020207794F8DC
:1022FC002E7004EB870999F82000202831D000EBD0
:10230C0040000BEBC000817D012905D029E040F293
:10231C005741702001F034F9AB4600F10805408AB2
:10232C0001AA694600F01EF994F82F00202804D069
:10233C002069401D20F07F400BE068890BF1090BF0
:10234C0028B101F0B9F8002808BF0BF1320B2BF0C3
:10235C007F40D5E90021891A2860084420F07F408D
:10236C00686039460120FEF7F3FE0028F9D01448C6
:10237C0000EB871010F81800022804D13A464146A9
:10238C000620FEF7B5FE84F82BA099F82100202832
:10239C0003D00C48407801F0C3F9207F002804BF1B
:1023AC0003B0BDE8F08F00F033FD2677667703B0FD
:1023BC00BDE8F08FAC0800202C0500201200002096
:1023CC002C0800201000002010B5304C82B094F87E
:1023DC002F10202908D0A168B1F1FF3F09D040F699
:1023EC00E821702001F0CCF840F6E721702001F0D4
:1023FC00C7F862680146264B50189A4204D940F23D
:10240C001661702001F0BCF8224A914204DD40F2C2
:10241C001761702001F0B4F81F4A914204DA4FF4AE
:10242C00C361702001F0ACF81C498142DCBF00F59F
:10243C00F700A0F1F85005DD0028BCBFA0F5F700AF
:10244C0000F1F85001AA694600F08CF89DF80400E0
:10245C000F288CBF012000200099084420F07F41F8
:10246C00A16094F82900002804BF02B010BD01231C
:10247C000322052000F052FB00281CBF02B010BD47
:10248C004FF42F61702001F07BF80000AC080020A5
:10249C00FF7F841E0020A10700E05EF80080841EF0
:1024AC0070B51E4C202184F8201084F8211084F87B
:1024BC002210002084F8230084F82E0084F82F10BA
:1024CC00421EA2602060A07784F8280084F82900BE
:1024DC002077607784F83010114984F82C0084F848
:1024EC002D00087048704880A4F182011022887079
:1024FC0001F8040F521EFAD10A4D012684F82A6005
:10250C00FF202870084801F0EDF8687001F048F9D8
:10251C00A86000F0ABFC84F8316070BDAC08002002
:10252C001200002010000020B90F0000410B48F2EF
:10253C00376251430A0C094B510202FB0302084853
:10254C00504300F586306E30400D5B4210FB03F3B8
:10255C00B2EB532F88BF491C08447047F7C2FFFFEA
:10256C006F0C0100430B48F2376C03FB0CF330B4D7
:10257C001B0CDFF844C05C0203FB0C030F485843F0
:10258C004FEA505C04EB0C0043F609541CFB04F4BA
:10259C0004F5807C43F60855A3EB5C2C2C440CF022
:1025AC00FF0CB3EB542F84BF4FF0000C401C0860A1
:1025BC0082F800C030BC7047F7C2FFFF6F0C0100FF
:1025CC002DE9F041384CD4F80403DFF8E08010F426
:1025DC00803F4FF400664FF0E0274FF000051CBF22
:1025EC00D4F84001002817D0C4F84051C7F88062D5
:1025FC002F480068D8F80010A0EB010020F07F40B5
:10260C00022802D3B0F5800F06D34FF48030C4F803
:10261C0008030420FEF7A0FFD4F8040310F4003FD5
:10262C001CBFD4F84401002817D0C4F84451C7F893
:10263C00806220480068D8F80010A0EB010020F060
:10264C007F40022802D3B0F5800F06D34FF4003040
:10265C00C4F808030520FEF77FFFD4F8040310F438
:10266C00802F1ABFD4F848010028BDE8F081C4F8C7
:10267C004851C7F8806210480068D8F80010A0EBE9
:10268C00010020F07F40022804D3B0F5800F38BF42
:10269C00BDE8F0814FF48020C4F80803BDE8F04198
:1026AC000620FEF759BF000000B0004004B5004002
:1026BC0040B5004044B5004048B500402DE9F0411C
:1026CC003A4D287804286CD0E81C0122017859B1C5
:1026DC00012908BF6A7002D0697800295CD00221F8
:1026EC000170407800F0E2FA314CD4F804034FF05A
:1026FC00000810F4002F4FF480764FF0E0271CBF39
:10270C00D4F84C01002808D04FF0030000F0CEFAAA
:10271C00C7F880620320FEF71FFFD4F8040310F4FF
:10272C00802F1CBFD4F84801002808D04FF00200BD
:10273C0000F0BCFAC7F880620220FEF70DFFD4F857
:10274C00040310F4003F1CBFD4F84401002808D047
:10275C004FF0010000F0AAFAC7F880620120FEF7E2
:10276C00FBFED4F8040310F4803F1ABFD4F84001E8
:10277C000028BDE8F0814FF0000000F097FAC7F890
:10278C00806204202870C5F80880C4F80082BDE877
:10279C00F0410020FEF7E0BE40F266316C2000F004
:1027AC00EFFEBDE8F0410720FEF7D6BE1C0000206E
:1027BC0000800040012213024FF0E0210020C1F8FC
:1027CC00803101F5C071BFF34F8FBFF36F8FC1F82C
:1027DC0000310C494A60431EC1F808330A4B18609B
:1027EC00C1F840011B1D1860C1F844011B1D186085
:1027FC00C1F848011B1D1860C1F84C010A6103495E
:10280C004870704700800040408500401C0000204C
:10281C00014800687047000004B500402DE9F05FE6
:10282C00414E0446F71E96F800C0F868BCF1010F43
:10283C0004BFA042BDE8F09F4FF040413B4A1160FD
:10284C003B496FF48023C1F808333A4A4FF0000536
:10285C00BCF1000F57D06FF4A023C1F848331560BA
:10286C00C1F84451D1F848214FF0E0294FF001084C
:10287C00002A04BF4FF40062C9F880224FF4803361
:10288C00C1F80833C1F84833C1F840512A4AD2F88C
:10289C0000A0A4EB0A0A2AF07F4BBBF1020F3CD339
:1028AC004FF0020ABBF5800F37D2C1F84045C1F892
:1028BC004433BCF1000F05D01168411A21F07F415F
:1028CC000229F9D3C7F808803D70FFF773FF1B4846
:1028DC000560001DC0F800A01949042008601949C2
:1028EC00C1F80C80BA68C1F800228101C9F88012C5
:1028FC00C9F80011144A41071160FC60707086F829
:10290C000080BDE8F09FC1F84833104B1D60C1F842
:10291C0040511560C1F84451A4E7C1F8405540F24C
:10292C00EF116C2000F02CFE1F00002008F5014078
:10293C0000B0004044B5004004B5004004850040A0
:10294C00108500400080004004F5014040B5004077
:10295C002DE9F0412B4CE168814214BF0122002289
:10296C00DFF8A4C09CF80070022F02D0002A38D0E7
:10297C0003E0002A08BFBDE8F081627882B3234BE4
:10298C004FF080421A60224B9513C3F80853C3F8DA
:10299C0048530026C3F840611E4AD2F80080A0EBD1
:1029AC00080828F07F48B8F1020F24D3B8F5800F3F
:1029BC0021D2C3F84005C3F844532FB11368CB1A86
:1029CC0023F07F43022BF9D3134B02214A071A60E1
:1029DC00E06004208CF801008CF80010BDE8F08158
:1029EC0004E040F2FD116C2000F0CAFD40F2012120
:1029FC006C2000F0C5FDC3F8406540F20D216C2041
:102A0C0000F0BEFD1C0000201F00002008F5014056
:102A1C0000B0004004B5004004F501400148C06816
:102A2C00704700001C0000202DE9F04133486FF482
:102A3C008024C0F80843DFF8C8C0324A00219CF853
:102A4C00003063B16FF4A024C0F848431160C0F8A3
:102A5C00441100BFD0F84801012280B909E0C0F848
:102A6C004843294C2160C0F840111160C0F8441152
:102A7C00F0E74FF0E0244FF40060C4F88002022B22
:102A8C0004D040F219216C2000F07AFD1F4E306802
:102A9C001F4CC01C20F07F40E3681E4D98420BD0A9
:102AAC003768DF1B27F07F47042F05D3B7F5800F5E
:102ABC0002D2FFF7B3FE1BE03068181A20F07F40FB
:102ACC00022813D3B0F5800F10D2134B4FF0804077
:102ADC001860A26021706A60EA604000191F0860EB
:102AEC0004208CF801008CF8002001E0A260217019
:102AFC00A068C5F80002BDE8F081000000B00040FD
:102B0C001F00002044B5004040B5004004B5004013
:102B1C001C0000200080004008F501402DE9F04722
:102B2C00DFF874C101274FF000089CF800509CF8A6
:102B3C0001C007287ED2DFE800F0040404046A6AAE
:102B4C006A00564CE668B6F1807F04BF6478002CAE
:102B5C0002D0022D05D03CE04FF413716C2000F034
:102B6C000FFD4FEA8C0404F18046ACF104042406FA
:102B7C00A40D04F1804906F5004609F530490024FE
:102B8C00012D02D0022D11D020E0BCF1040F05D292
:102B9C00D6F840A1BAF1000F18D104E0D9F840A141
:102BAC00BAF1000F12D14FF000440FE0BCF1040F4A
:102BBC0005D2D6F840A1BAF1000F07D104E0D9F83C
:102BCC0040A1BAF1000F01D144F0804414F0804FC1
:102BDC00D5D1334C00F1100C07FA0CFCC4F808C327
:102BEC008000204452B10764D0F840658D1B25F05D
:102BFC007F45AA4298BFB5F5800F43D2C0F8401567
:102C0C00012B08BFC4F804C30120BDE8F08735B11F
:102C1C00844504D140F26F216C2000F0B1FC001F00
:102C2C00C0B2012B0CBF01240024032806D340F2B0
:102C3C00491100E02BE06C2000F0A2FCDFF864C02E
:102C4C0000F1100307FA03F3CCF80833CCF848333F
:102C5C0080006044C0F840814AB1134D2E688D1B32
:102C6C0025F07F45AA4298BFB5F5800F0AD2C0F86F
:102C7C004015002C18BFCCF80433CCF84433012099
:102C8C00BDE8F087C0F840850020BDE8F0874FF420
:102C9C001D716C2000F074FC1F0000201C00002033
:102CAC000080004000B0004004B50040F8B501279A
:102CBC00002407284CD2DFE800F0040404041616A4
:102CCC001600264A00F1100107FA01F1C2F80813A8
:102CDC0081001144C1F84045C1F84041204951F8E8
:102CEC0020000090F8BD1F4D011FCEB2297879B19C
:102CFC006A7882420CD11C4A4FF040401060012986
:102D0C0008BFFFF757FD2C7018494FF08070C86052
:102D1C0006F1100007FA00F11548C0F80813C0F8C6
:102D2C004813B00000F1804000F53040D0F8401559
:102D3C00104A1268891A21F07F41022924BFC0F879
:102D4C004045C0F840410C4850F826000090F8BDB2
:102D5C0040F2ED216C2000F013FC000000800040DC
:102D6C00408100401F00002008F501401C0000209D
:102D7C0000B0004004B5004040B100401E496FF463
:102D8C008023C1F808331D481D4A90F800C000206C
:102D9C00BCF1000F0AD06FF4A023C1F848331060C7
:102DAC00C1F84401D1F8481181B909E0C1F84833A0
:102DBC00144B1860C1F840011060C1F84401F1E7F0
:102DCC004FF0E0224FF40061C2F880120E494FF030
:102DDC00FF32C1F808230D4A1060C1F84001121DE2
:102DEC001060C1F84401121D1060C1F84801121D99
:102DFC001060C1F84C01704700B000401F0000206B
:102E0C0044B5004040B50040008000404085004083
:102E1C00084890F902000028B8BF704700F01F0165
:102E2C00012202FA01F14009800000F1E020C0F813
:102E3C00001270471C00002010B507280DD2DFE8E7
:102E4C0000F00404040406060600064902E0001F14
:102E5C000549C0B201EB800010BD4FF426716C2007
:102E6C0000F08EFB4081004040B1004070B5194825
:102E7C00002404210470C01E01708905C160FFF795
:102E8C0099FC01254FF0E02CEB02CCF88031BFF31C
:102E9C004F8FBFF36F8FCCF880320F4A556095601F
:102EAC000E4801680029FCD1481EC2F80803C2F87C
:102EBC0048030B480460C2F84041001D0460C2F88E
:102ECC004441001D0460C2F84841CCF80031156043
:102EDC0070BD00001F00002000B0004004B5004091
:102EEC0040B500402DE9F041164C607A002827D0FF
:102EFC004FF480718D05284604F025FA80464FF476
:102F0C008271284604F01FFA00260746B8F1000F1C
:102F1C0009D00120C5F80803207920B12671E06999
:102F2C0008B18047E66137B1C5F804610220C5F8E5
:102F3C00080300F06DFA4046BDE8F04100F05AB8C5
:102F4C00BDE8F0812C00002010B504F0A6FA30B9D1
:102F5C0004F0C4FA18B904F0F7FA002802D00249B8
:102F6C000220086010BD0000340C004070B500F069
:102F7C0087F900F0A1FA094C4FF0804530B1FFF70A
:102F8C00E3FF012028610420A07204E00320A0725A
:102F9C000120C5F804030020E07170BD2C00002056
:102FAC0070B5134CA079F0B1012803D0E179401E23
:102FBC00814218DA00F080FA054600F051FBA17945
:102FCC00012902D9E179491CE1710DB1616900E077
:102FDC002169411A022902DA11F1020F07DC0DB145
:102FEC00606100E02061BDE87040FFF7BFBF70BDBD
:102FFC002C0000202DE9F04706464FF080454FF499
:10300C008671284604F09FF980464FF48871284653
:10301C0004F099F9274C8246277804F1080004F053
:10302C0006FA10B14FF4D57116E04FF0010946B114
:10303C00A07A032805D10420A072FFF785FFC5F8FC
:10304C0010900026B8F1000F18D0C5F80C61A07ACA
:10305C00042804D04FF4DE716D2000F091FA04F0D6
:10306C001CFA28B904F03AFA10B904F06DFA08B158
:10307C00114806600220A07200F0E6F8BAF1000FC9
:10308C0008D0C5F81061A07A022801D1FFF788FF9B
:10309C00C5F814903FB12670A07A022801D1FFF731
:1030AC0065FF00F0D1F8BDE8F0470248083004F0A5
:1030BC00D5B900002C000020340C00402DE9F0475D
:1030CC005C4C4FF000080646C4F8188043788278B0
:1030DC000078E07263710127A271BD0784F8078044
:1030EC00052824D2DFE800F00F03051F2100A7619B
:1030FC0009E000F0C5F80121284604F029F9002860
:10310C00F9D00220A06104F04FF9B0B100F0EEF953
:10311C00217E01F0030188420FD1B07950B1022019
:10312C00C5F804036AE04448ECE74448EAE74FF486
:10313C004C7149E000F0AEF960E0EF604FF4827A38
:10314C00C5F80481A069C5F8180504F092F940B9D6
:10315C0004F099F928B904F0ADF910B904F0BEF9EE
:10316C0038B14FF080513648D1F84412C1F3423196
:10317C00016004F07EF940B904F085F928B904F037
:10318C0099F910B904F0AAF910B12D481030076064
:10319C00AF600220C5F80403B07978BBD5F80403FE
:1031AC0010F0020F0ED0DFF89C90D9F80010C94334
:1031BC0041F30017D9F8001041F01001C9F80010C4
:1031CC007F1C07E040F2F1216D2000F0D9F900BF1F
:1031DC0000F0FCFA5146284604F0B5F80028F7D068
:1031EC0000F058F92FB9D9F8001021F01001C9F8E6
:1031FC0000100220C5F80803C5F80481A07970B14D
:10320C00307860B900F058F9064600F029FA6FF0F2
:10321C00004216B1C4E9042001E0C4E90402012112
:10322C00284604F095F808B100F040F984F80A80BB
:10323C00BDE8F0872C000020010002000100030013
:10324C003C05004010ED00E010B5EFF3108472B6B1
:10325C000A48417829B14178491E4170417829B119
:10326C0008E040F20D116D2000F08AF9807808B961
:10327C0000F030F9002C00D162B610BD2C000020FB
:10328C0010B5EFF3108472B606484178491C4170B2
:10329C004078012801D104F072F8002C00D162B6FC
:1032AC0010BD00002C000020054810B5C17821B1DC
:1032BC0000210171C170FFF7C7FF002010BD000095
:1032CC002C00002070B50C4CE17861B90125E5703B
:1032DC00E061FFF7D5FF00F0EFF830B1E06910B115
:1032EC0080470020E061002070BD4FF080402571C8
:1032FC00C0F80453F7E700002C000020EFF3108017
:10330C0072B604498A78521C8A70002800D162B6C1
:10331C00704700002C00002010B5EFF3108472B63B
:10332C000A48817829B18178491E8170417829B188
:10333C0008E040F225116D2000F022F9807808B9E0
:10334C0000F0C8F8002C00D162B610BD2C00002093
:10335C002DE9F04104006FF015003CD021780429D0
:10336C0039D80029617838D0002934D1A1780029C6
:10337C0031D1002003F0B2FF002003F0A2FF4FF088
:10338C0080484FF0FF31C8F808130026C8F80061D8
:10339C00C8F80461C8F80C61C8F81061144F7E704D
:1033AC00A088B88103F0E2FF012508B1FD707D70A3
:1033BC000121404603F0CCFF08B100F077F820461D
:1033CC00FFF77CFE7D72002003F07BFF4FF0E021C5
:1033DC003046C1F80051BDE8F0810029FBD020290E
:1033EC00F9D8A1782129F6D80129C2D1F3E7000038
:1033FC002C00002001488089704700002C00002020
:10340C000248807A002800D0012070472C00002050
:10341C00F8B51F4DE87A00280FD1287E00F0030084
:10342C0003F0B2FF002808D0EFF3108172B6FFF75B
:10343C00E7FF18B1002900D162B6F8BD0126AE72C3
:10344C0001B962B618204FF08044C4F80803A66195
:10345C004FF42070ADF80000BDF80000411EADF82F
:10346C000010F9D20027C4F80C71C4F81071084888
:10347C00083003F0EFFF2F70FFF778FD6661687975
:10348C0000F07F00C4F838051820C4F80403F8BD18
:10349C002C00002010B5044C207E00F0030003F03B
:1034AC0073FF0028F8D010BD2C000020014901202A
:1034BC00087070475C0100204FF08040D0F800018C
:1034CC0018B903480078002800D00120704700008C
:1034DC005C0100204FF08040012141600021C0F8C8
:1034EC0000110148017070475C010020024800681F
:1034FC0000F00300704700001C04004010B531B10F
:10350C00012907D04FF4427105A000F00FF8D0F854
:10351C00140401E0D0F8080400F0010010BD000014
:10352C006E72665F636C6F636B2E6800024A526842
:10353C0002B11047FEE700004C000020064810B511
:10354C000021016001210160084603F044FFBDE841
:10355C001040012003F032BFFC1F0040074810B59B
:10356C0001214160891EC0F808130C2003F033FFC1
:10357C00BDE810400C2003F021BF000000C000404B
:10358C00FEB5104A5568E5B1002203466E460A2482
:10359C0003E0B0FBF4F0521CD2B20028F9D1B054C5
:1035AC000AE000BFB3FBF4F004FB1030B3FBF4F300
:1035BC00521ED2B23030B054002AF3D13046A84754
:1035CC00FEBDFEE74C00002070B5174C06460D46BC
:1035DC00607810B14FF0FF3070BD06B9134E6260C9
:1035EC002570FFF7ABFFFFF7B9FF3046FFF7B0FED2
:1035FC000600F1D1FEF754FFFFF70AFF03F038FE87
:10360C00284603F0DBFE0120002D09DB05F01F012D
:10361C0000FA01F16A09920002F1E022C2F80011ED
:10362C006070304670BD00004C0000200474000037
:10363C0001484078704700004C000020074890F982
:10364C000000002809DB00F01F0201219140400915
:10365C00800000F1E020C0F8001270474C00002000
:10366C002DE9F04101264FF0E02231034FF0000824
:10367C004046C2F88011BFF34F8FBFF36F8F164CCB
:10368C00C4F800010C2003F0C5FE144D2868C0439B
:10369C0040F30017286840F010002860C4F8046359
:1036AC0026607F1C02E000BF00F090F8D4F8000107
:1036BC000028F9D01FB9286820F0100028600848AD
:1036CC0005686660C4F80863C4F800810C2003F038
:1036DC00A1FE2846BDE8F08100C0004010ED00E0DE
:1036EC0008C5004010B5024605200C4904E000BF97
:1036FC0001EBC0031B7933B1401EC0B2F8D24B2191
:10370C006920FFF73DFF41F8302001EBC00100229A
:10371C004A718A7101220A7110BD0000E008002074
:10372C0010B5052801D35A2106E00A4901EBC00067
:10373C000179012903D05B216920FFF721FF417931
:10374C008279491CC9B28A4200D04171BDE810404F
:10375C00FFF774BFE008002070B505250E4E0F4C26
:10376C0016E0217806EBC1000279012A08D14279D2
:10377C0083799A4204D04279827156F8310080479D
:10378C002078401CC0B22070052801D30020207086
:10379C006D1EEDB2E5D270BDE00800205D01002089
:1037AC0000B503F066FE40B903F06DFE28B903F0D6
:1037BC0081FE10B903F092FE08B1024800BD024828
:1037CC0000BD00000C05004000E7014010B503F0FF
:1037DC0085FE30B3EFF31080C8B1002172B61248E9
:1037EC0002680368C2F3001243F0100303604FF049
:1037FC00E023D3F80042D3F804321C4300D040BF7E
:10380C0020BF00BF00BF00BF00BF12B105E0012107
:10381C00E4E7026822F010020260002900D062B6D0
:10382C0010BD20BF10BD000010ED00E05977000066
:10383C0075770000637700006F7700005D770000FC
:10384C0057770000557700007B7700006977000000
:10385C004F770000477700004B770000417700005E
:10386C0001480068006800475400002001480068C7
:10387C000069004754000020014A12689268104702
:10388C005400002001480068C06800475400002024
:10389C00014A126852681047540000200149096817
:1038AC00096A08475400002001480078704700005E
:1038BC005E0100201FB5174CA079022800D202200F
:1038CC008DF801006079032800D203208DF80000E8
:1038DC002079ADF80400E078ADF80200684602F0FB
:1038EC00DDFA08B1AE2110E0A068029002A802F047
:1038FC00EBFA08B1B22108E007480068039003A86E
:10390C0005F06EFC002803D0B621032000F0CEF8A1
:10391C001FBD000064000020403B000010B528B122
:10392C001422044903F02CFE002010BD6FF015008A
:10393C0010BD0000723B000070B56FF02C05B0BBE1
:10394C001D4CA07808B1A81170BD21B36FF0150003
:10395C00002AF9D008292AD2DFE801F02904070A45
:10396C000E11141E1078207318E01078607315E097
:10397C001068C4F80F0011E0106860610EE0107858
:10398C00A0730BE0217911B111780229DCD30A491B
:10399C0010780C31087301E010886083064901220D
:1039AC000C31002003F0E5FEB0F5803F01DB28462A
:1039BC0070BD0121E17070BD5800002038B50D4676
:1039CC00040020D0FDB100F003F9F8B12046FFF758
:1039DC0089FE104C002204F10C012070284603F0E3
:1039EC00C8FE05F032FE0021207802F0A5FB6078BD
:1039FC008DF80000684605F0E7FBFFF75BFF012040
:103A0C00A070002038BD6FF0150038BD4FF0FF30AE
:103A1C0038BD00005800002070B505000BD0FFF732
:103A2C0007FE4FF0FF3420B1FFF7E4FCB0F5FA7F4E
:103A3C0004D9204670BD6FF0150070BD0022164BE6
:103A4C00114600BF33F82140844203D303EB8100BD
:103A5C00827803E0491CC9B20C29F3D30F4C1048EF
:103A6C006270A56000F0C0F90020A070E0702071B9
:103A7C00EFF3108472B60B486FF00C0100F00AFDE6
:103A8C00094800F0CBFD18B1C421032000F00EF85A
:103A9C0004B962B6002070BD423B00005800002003
:103AAC00C138000000C00040093C00000EB572B6E1
:103ABC00154A9568D5B1002203466E460A2403E0E8
:103ACC00B0FBF4F0521CD2B20028F9D1B05409E08A
:103ADC00B3FBF4F004FB1030B3FBF4F3521ED2B280
:103AEC003030B054002AF3D13046A847BFF34F8F83
:103AFC0006480168064A01F4E06111430160BFF316
:103B0C004F8F00BFFDE70000580000200CED00E0D7
:103B1C000400FA05064810B5C1788078014302D03C
:103B2C004FF0FF3010BD02F027FB002010BD00004D
:103B3C0058000020010001000B0002000A000500E3
:103B4C0009000A000800140007001E0006003200DD
:103B5C0005004B0004006400030096000200FA000C
:103B6C000100F40100003F47708E81954E869DD375
:103B7C00A29588F6300A7F5349FD0000054A10B51E
:103B8C00526812B1BDE81040104783210420FFF7A2
:103B9C008DFF000008090020054A10B5126812B10B
:103BAC00BDE8104010477D210420FFF77FFF000087
:103BBC0008090020054A10B5926812B1BDE8104002
:103BCC00104789210420FFF771FF0000080900202D
:103BDC000548016829B1416819B1806808B1012014
:103BEC0070470020704700000809002002490DC8EA
:103BFC0081E80D000020704708090020F8B5124C30
:103C0C000026256811E00098022802D003280CD168
:103C1C0006E0206810B10020266005E028210CE0A9
:103C2C00206868B101202660A847684600F0C8FCEF
:103C3C000028E8D0052805D035210420FFF736FFF1
:103C4C002D21FAE7F8BD0000740000207CB5214C52
:103C5C000546207840B1A278611C2846921C03F0DE
:103C6C008FFC0020207025E01A48443802F06CF9D3
:103C7C00002820D0174C443C2078112804D10A216C
:103C8C003E2003F0DDFD18B12078082806D00AE0AC
:103C9C0010492846443903F092FF0BE005213E20E1
:103CAC0003F0CEFD40B10B492846443903F0DCFD4E
:103CBC00002800D001207CBDA088ADF8000001A92F
:103CCC00684604F073F80028F5D098210820FFF717
:103CDC00EDFE0000E809002070B50A7882703AB356
:103CEC00012A25D81323037000230AE001EB4304B7
:103CFC0000EB4305A678EE706488240A5B1C2C71DB
:103D0C00DBB29342F2D300230BE000BF01EB43057F
:103D1C0000EB43042E796671AD882D0A5B1CA571EE
:103D2C00DBB29342F2D3012101EB8200C0B270BD31
:103D3C00002070BD01210C4A40280CD2202803D849
:103D4C00401E8140106802E02138814050680142D9
:103D5C0007D100207047FF2803D04038814090687D
:103D6C00F5E7012070470000780000200121401E7B
:103D7C0081400448C068014201D0012070470020F6
:103D8C00704700007800002001490068C860704747
:103D9C007800002004490268406842F48C220A60D2
:103DAC00024A10434860704778000020F807400230
:103DBC0005484FF0FF310160C90C41600021816062
:103DCC001F21C160704700007800002010B5FFF77C
:103DDC00EFFF05F06AFA04460248006800B180471C
:103DEC00204610BD88000020014908607047000083
:103DFC0088000020022101804180002101713F21B7
:103E0C00417147F24701C180014981600020704730
:103E1C008E81954E3EB50446694604F0CAF870B1E1
:103E2C0040F2122108E000BFBDF80400214600F06A
:103E3C00A9F820B140F217211720FFF737FE68468A
:103E4C0000F050F80028EFD03EBD000010B502285D
:103E5C0004D340F26B111720FFF728FE0149085CD0
:103E6C0010BD000014090020F8B5054600909142E1
:103E7C0001D2144600E00C4655B10027E81C20F096
:103E8C000300A84206D040F23F111720FFF70EFEA8
:103E9C000127F3E7124E684631707270394600F014
:103EAC00EDF8002003460099C91C21F00301009194
:103EBC0067B906EB8002D160002105E0D2F80CC096
:103ECC004CF82130491CC9B2A142F7D30099401CCF
:103EDC0001EB8401C0B200910228E4D3481BF8BD69
:103EEC001409002070B5044604F0CDF808B1102078
:103EFC0070BD257800F0FEF802460C48618800EB96
:103F0C0085000EE0C36853F8213043B14A1C62802F
:103F1C00A180C06850F82100A060002070BD491C31
:103F2C0089B29142EED36180052070BD1409002046
:103F3C002DE9F04121B1012902D00020BDE8F0812A
:103F4C000F4C00273B464FF6FF7604EB810514F827
:103F5C0001C00AE0DC19D5F80CE0A4B25EF824E04C
:103F6C00BEF1000F04D05B1C9BB29C45F2D83446CA
:103F7C0004802046B442E0D0BDE8F04100F034B8F3
:103F8C00140900202DE9F0410646A0F57F400C46AF
:103F9C0043F20207FF3820D0022C02D30720BDE8E1
:103FAC00F081304600F05AF8050016D00C4829462E
:103FBC0050F82420304690470A48002100EB840733
:103FCC00F86840F82610204600F08AF80246294688
:103FDC00786803F0BBFF0020E1E73846DFE700001C
:103FEC0020410000140900202DE9F04190460D46B7
:103FFC00074603F0EFFF48B1164800EB8506F06862
:10400C0050F8270028B140F2091115E04FF48471E3
:10401C0012E0706800281AD0284600F061F80146BA
:10402C00706803F045FF040010D0F068022D40F8D2
:10403C00274004D34FF48A711720FFF737FD064849
:10404C004246214650F82530384698472046BDE870
:10405C00F0810000140900201841000070B50C46D6
:10406C00054603F0B7FF002805D0034800EB840099
:10407C00C06850F8250070BD140900202DE9F843E4
:10408C00164E8846054600242868C01C20F0030004
:10409C002860204600F024F8315D4843B8F1000F49
:1040AC0001D0002200E02A680146009232B10027BC
:1040BC004FEA0D0003F029FF1FB106E00127002095
:1040CC00F8E706EB8401009A4A602968641C0844EE
:1040DC00E4B22860022CD7D3BDE8F8831409002081
:1040EC00034931F810004FF6FC71C01C08407047B2
:1040FC0014410000034801784078814200D30846FF
:10410C0070470000140900201002E800F57F000041
:10411C00F57F00007B8C0000018500002DE9FF4F2E
:10412C00264C804681B020689A46934658B1027A54
:10413C00424503D9416851F8280040B143F20200CE
:10414C0005B0BDE8F08FA5211820FFF7AFFC19468C
:10415C00029803F061FF86B258460E9903F053FFA4
:10416C0085B27019001D87B22068A14639460068D7
:10417C0003F09EFE04001FD0678025802946201D79
:10418C000E9D07465A460123009503F050FE2088E9
:10419C00314638440123029ACDF800A003F047FEC3
:1041AC002088C119384603F073FED9F80000416825
:1041BC00002041F82840C3E70420C1E78C00002010
:1041CC0070B5144C23688BB1197A814212D95A6894
:1041DC0052F8201071B1002542F820504A88186816
:1041EC0003F0B4FE216800200A7A0CE0C8211820E4
:1041FC00FFF75CFC43F2020070BD4B6853F82030B3
:10420C0033B9401CC0B28242F7D8086803F093FE61
:10421C00002070BD8C0000202DE9F0410D460400FB
:10422C0090464FF0000609D00027E01C20F0030058
:10423C00A04205D086211820FFF738FC0127F4E7AF
:10424C00CDB11146002003F060FE0C3000EB85066A
:10425C008FB90A4F04F10C00AA003C602572606013
:10426C0000EB850020600021606803F003FA4146F2
:10427C00386803F04AFE3046BDE8F0818C0000201F
:10428C00094910B502460968002049B10B7A9342DE
:10429C0005D9496851F82210002900D0081D10BD1D
:1042AC00EE211820FFF702FC8C00002070B50646AA
:1042BC0009480D4600880AB1440800E084082146EC
:1042CC00286803F0F5FD00212A7964F31F41521C84
:1042DC002A71C6E9000170BD900000202DE9F84F4D
:1042EC00884605000AD00027E91C002021F00301B4
:1042FC00A94205D02E210920FFF7D8FB0127F3E7AF
:10430C001D4900EBC80607B94D601F2A04D84FF6AB
:10431C00FF7000EA820007E07C20B0EB420F01D274
:10432C00500000E07C2080B24FF6FC72C01C1040A4
:10433C0000240880A246894616E0A81900900FB107
:10434C00002000E06846B9F8001003F0DEFD47B924
:10435C00D9F8041001EBC40383F804A0009A41F8C7
:10436C003420641C0644E4B24445E6D3F61D26F022
:10437C000700BDE8F88F000090000020064910B53A
:10438C004A6802EBC004002020710988204603F023
:10439C00BCFD204610BD000090000020094910B55E
:1043AC0007480860084B112003EBC0040022C4F836
:1043BC001025C4F81425401CC0B21428F4D310BD29
:1043CC000000FEFF08F5014000F0014070B520240C
:1043DC000021012320FA01F2D20720D04AB2002A90
:1043EC0010DB00BF4FEA52164FEA860602F01F059B
:1043FC0006F1E02603FA05F5C6F88051BFF34F8F9E
:10440C00BFF36F8F0BDB02F01F054FEA52124FEA1E
:10441C00820202F1E02203FA05F5C2F8805201F1A2
:10442C000101A142D6D370BD70B542004FF000011E
:10443C0001D5144A1160C0F38032C0F3C0339A42E4
:10444C0003D064211B20FFF731FB10F4404F14D034
:10445C000D4A01205060831EC2F808330B4A90604D
:10446C00C2F80012C2F80833094C2160251D2860DF
:10447C009060C2F8083321602860BDE87040FFF7F7
:10448C008DBF000004E5014000E0004000F000405A
:10449C0000F5004070B50A4C0D462060FFF7C4FFD4
:1044AC002068FFF793FF00F077F8FFF777FF03F032
:1044BC00DFFD284600F0AAF8BDE8704000F0C2B855
:1044CC00980000202DE9FC5F2F4E83463068019048
:1044DC0001272E4802F0ABFFDFF8B08020B900278F
:1044EC0008F1010002F0BAFF294C00254FF0030936
:1044FC0001206060C4F80051C4F80451C6F800B043
:10450C002060DFF890A017E0DAF80000C00613D5A1
:10451C000E2003F09EFDEFF31080009072B6C4F8ED
:10452C000493D4F8000120B9D4F8040108B9FFF7BA
:10453C004DF9009800B962B6D4F8000118B9D4F856
:10454C0004010028E0D0D4F804010028D0D137B100
:10455C000198306008F1010002F069FF11E008F1E8
:10456C00010002F064FF0028BAD1C4F80893C4F823
:10457C000451C4F800510E2003F06BFD034802F007
:10458C006DFF0020BDE8FC9F04E500405F010020AA
:10459C0000E0004010ED00E010B5084802F05AFFB2
:1045AC0008B1242106E00548401C02F053FF002806
:1045BC0003D028211D20FFF779FA10BD5F010020E0
:1045CC0070B511490A68EAB100231D4601244A68F6
:1045DC00521C4A60092A00D34D600E7904FA06F287
:1045EC000E6816420BD0EFF3108372B60C6894432E
:1045FC000C6003B962B649680160002070BD5B1C99
:10460C00092BE4D3052070BD9C000020024800213A
:10461C0001604160704700009C00002010B5084C00
:10462C00617809B10F2010BDFFF75CF82070FF28EE
:10463C0001D0002010BD76211F20FFF737FA0000B3
:10464C00A40000200149002048707047A4000020FD
:10465C0005498A8C824205D1002081F822004FF650
:10466C00FF70888470470000EA0A00200A4A10B1E3
:10467C00012807D00EE0507860B1D2F80200086033
:10468C00D08804E0107828B1906808609089888000
:10469C00012070470020704761010020084A012367
:1046AC0038B1012804D11370086890608888908113
:1046BC00704753700868C2F802008888D080704731
:1046CC0061010020064910B1012802D005E04878AC
:1046DC0000E0087808B10120704700207047000006
:1046EC006101002001494874704700001A05002040
:1046FC0000487047E30C002004498A78824203D9B1
:10470C00084490F84301704700207047100B0020BC
:10471C0004498A78824203D901EB00108330704738
:10472C0000207047100B0020054A01EB410102EB01
:10473C0041010268C1F80B218088A1F80F01704774
:10474C00100B00202DE9F0410E46074615460621B8
:10475C00304603F07CFD0D4C60B1002004E02118C4
:10476C00401C81F83B51C0B2A1788142F7D801209E
:10477C00BDE8F0813146384603F0DFFC082803D051
:10478C00204480F83B51F2E70020F1E7100B0020A9
:10479C0004498A78824203D901EB0010C01C70478F
:1047AC0000207047100B002010B540F2D3120021EE
:1047BC00084802F05FFF0822FF21074802F05AFF69
:1047CC0005480021001F017041704FF46171418058
:1047DC0010BD0000100B002054010020014908708E
:1047EC00704700005001002001480078704700001D
:1047FC00500100200B4B10B59C7884420FD9184403
:10480C0090F8030103EBC00090F853310B70D0F813
:10481C0054111160B0F858019080012010BD002097
:10482C0010BD0000100B002007498A78824209D97C
:10483C00084490F8030101EBC00090F85A0100F015
:10484C000100704700207047100B00202DE9F04745
:10485C00984691460C46054600F038F90646102855
:10486C0006D000F003F9102802D01220BDE8F08722
:10487C00184FB87808282AD2102E05D100222146CC
:10488C00284600F007F90646BC781022601CB87068
:10489C0007EB0415E81C494603F0CCFC05F183003A
:1048AC001022414603F0C6FC1021404603F0CFFC19
:1048BC003C44102184F84301484604F5967403F0F7
:1048CC00C6FCE07704F8296C0020E073CEE70720E3
:1048DC00CCE70000100B0020064810B58078401E75
:1048EC0044B204E0E0B200F039F9641E64B2002C6A
:1048FC00F8DA10BD100B002001484088704700000A
:10490C005001002038B14AF2B811884203D803494B
:10491C0048800120704700207047000050010020A3
:10492C0005498A78824203D9084490F83B0108B1C2
:10493C000020704701207047100B002070B50D4609
:10494C00064600F0C3F8104C102807D004EBC00149
:10495C0091F85A11C90701D0012070BD617808295E
:10496C0010D2102808D004EBC000012180F85A1195
:10497C006078401C6070EFE701222946304600F059
:10498C0089F8F5E7002070BD100B002070B50B4DB9
:10499C002878401E44B20AE005EBC40090F85A0196
:1049AC00C00702D0E0B200F021F9641E64B2002C02
:1049BC00F2DA03490020487070BD0000100B002093
:1049CC00500100202DE9F04100242546184E29E025
:1049DC0006EBC50797F85A01C00721D0284600F00E
:1049EC0045F80346FFF7D4FE01460020102B09D0F2
:1049FC00F21892F83BC1BCF1010F02D092F84B2196
:104A0C0002B10120401E01420AD10A4807F5AA71E1
:104A1C0003552046641C97F85321E4B202F078F950
:104A2C006D1CEDB23078A842D2D8BDE8F081000000
:104A3C00100B00205401002070B50A4B1B7873B189
:104A4C00094B9C785CB1451821460AB1D81C01E091
:104A5C00054883302A4601F0D1FB012070BD0020AF
:104A6C0070BD000050010020100B0020084910B54B
:104A7C00034600208A7806E00C1894F803419C4207
:104A8C0004D0401CC0B28242F6D8102010BD0000E9
:104A9C00100B002070B50C4B04461878451C1D708B
:104AAC00102803D346212820FFF700F803EBC0039E
:104ABC000D68C3F854518988A3F8581183F85341F1
:104ACC0083F85A2170BD0000100B00202DE9F04135
:104ADC000F46064600240D4D0FE000BF05EBC40049
:104AEC0090F85311B14206D10622394600F5AA704E
:104AFC0002F034FD38B1641CE4B22878A042EDD841
:104B0C001020BDE8F0812046FBE70000100B0020D0
:104B1C0070B50546FFF7AAFF10281CD10E4C207863
:104B2C00401EC0B22070A84215D004EBC00204EBAA
:104B3C00C50102F58070D2F85321C1F85321D0F889
:104B4C005700C1F857012078FFF790FF102802D0CA
:104B5C00204480F8035170BD100B00202DE9F04764
:104B6C00214C0646A719A078401EC5B2A57097F82F
:104B7C000381AE422AD004EB051A04EB06190AF1A4
:104B8C00030109F10300102202F0FAFC0AF183017F
:104B9C0009F18300102202F0F3FC601905EB4502C9
:104BAC0090F8031187F8031106EB460104EB42025F
:104BBC0004EB4101D2F80B31C1F80B31B2F80F21E3
:104BCC00A1F80F2190F83B0187F83B0104EBC800DA
:104BDC0090F85A01C00704D14046BDE8F047FFF7F2
:104BEC0097BFBDE8F0870000100B002005494A78FC
:104BFC00521E4A7001EBC001002281F85A21FFF7C6
:104C0C0087BF0000100B0020F0B56FF01F02010CE5
:104C1C0002EA90261F25A1F5AA4054380DD0A1F523
:104C2C00AA40553809D0A1F52850AA3805D0A1F5CD
:104C3C002A40AA3801D0012000E0002000221346AF
:104C4C004FEA020482EA0107FF431F437F1C0FD087
:104C5C0006F00107520842EAC73205F001075B086B
:104C6C0076086D08641C43EAC733162CEAD3F0BDF2
:104C7C000020F0BD2DE9F047044600F168054FF027
:104C8C00010971B104F17E077E1E012921D0022990
:104C9C0046D003291BD139463046BDE8F04703F016
:104CAC00E5BA4FF40472002102F0E4FC01F096FA2C
:104CBC0044F62B11084085F8159085F84C00000A35
:104CCC0085F84D00FE2085F87C007F206872BDE8D9
:104CDC00F0874FF00008A4F8068184F8FB80616827
:104CEC0014480A460844B0FBF1F0C4F8940040F6AE
:104CFC00B830A4F898006389284600F01DF83946AE
:104D0C00304603F0B3FA02F005FC18B1E068FFF787
:104D1C007BFF10B184F86C81D9E784F86C91D6E7ED
:104D2C004168B4F89A31D4F894212846BDE8F0478C
:104D3C0000F002B87FC3C90130B500248486048F0B
:104D4C00134D4C43B4FBF2F4048742F210746343EA
:104D5C00B3FBF2F35B1C9BB203FB02F4C386AC42C5
:104D6C0001D95B1EC3860B4B40F27124B3FBF2F3EB
:104D7C005B1C8387038E634302EB03135B1EB3FB45
:104D8C00F2F3C362836A4B43B3FBF2F1816230BD31
:104D9C000048E801005A62022DE9F0475FEA000979
:104DAC0006D0214D05F11000697B824619B10BE04C
:104DBC004FF4747105E0002103F01FFB20B140F2A9
:104DCC00D3312B20FEF772FE2E8A0020FFF73EF81F
:104DDC00164FDFF85C800446386858B1288AA04228
:104DEC0008D3001BC0B2012103F0D9F848B14946E1
:104DFC003A6804E0D8F800201AB1288A494690474E
:104E0C0068B90021504603F0F8FA10B9288AB0426C
:104E1C00E2D10848016829B14846884710B1012001
:104E2C00BDE8F0870020FBE72809002020010020C6
:104E3C00240100202801002070B505000C462ED05E
:104E4C00184802685AB32846904740B32078112876
:104E5C0002D0142803D020E02079F0B10AE02079A8
:104E6C0020B1284603F09FFB20B116E00E4900202C
:104E7C00487312E0E4880021204603F090F860B1FA
:104E8C00008803F005F900212046FFF77BF820B1DC
:104E9C004FF49A712B20FEF709FE012070BD002003
:104EAC0070BD00001C0100202809002070B50446CC
:104EBC00007C00B302281ED05FF0010004F1490110
:104ECC0084F848000D46C0B1E07DF0B1D4F8110073
:104EDC00C4F84900B4F81500A4F84D00207C03F088
:104EEC00D0FA20760820607694F84800294603F022
:104EFC00B4FAA8B90EE00020E0E70020FFF7B6FBFB
:104F0C000028EBD140F27F4101E040F283412D209B
:104F1C00FEF7CCFD94F84800294603F0A7FA00B13F
:104F2C000120A076207E10B9A078400706D594F811
:104F3C004F0004F1500103F000F960760025256460
:104F4C0002F0A9F960640021204603F0E8FB84F824
:104F5C005650A078400708D5207E002805D0204662
:104F6C00BDE87040002100F091BD70BD08B590F80F
:104F7C00A8208DF80020009A00929DF800300022A5
:104F8C0063B14A7017230B7050F8A93F4B6043680C
:104F9C008B60037A0B7300F8012C3BE090F8A23085
:104FAC008DF80030009B00939DF8003043B14A709F
:104FBC0005230B70D0F8A4304B6080F8A22029E0B8
:104FCC0090F878308DF80030009B00939DF80030FD
:104FDC001BB100BF03F07AFB1CE090F89A308DF8FF
:104FEC000030009B00939DF80030ABB190F8783006
:104FFC008DF80030009B00939DF80030002BE9D118
:10500C004A7014230B7050F89C3F4B6083880B81C3
:10501C0000F8022C012008BD002008BD30B50C465C
:10502C008DB005460146202202A802F0A9FA0AA872
:10503C0003F022FCA07A8DF8180020788DF8080077
:10504C00B4F80100ADF800009DF8000000F001017B
:10505C00C0F3400241EA4201C0F3800241EA8201FE
:10506C00C0F3C00241EAC201C0F3001241EA0211CE
:10507C00C0F3401241EA4211C0F3801041EA8010A3
:10508C00ADF80A00207D012806D0022804D040F299
:10509C0085210620FEF70AFD8DF80C00617A0AA81E
:1050AC0003F0D1FB207D0121022802D1607D401C40
:1050BC00C1B2A07E401CC2B20AA803F08BFBBDF8A3
:1050CC000A00000701D5002020E00AA803F094FB99
:1050DC00BDF80A10282200F039FD40F2712100F2CF
:1050EC00D520B0FBF1F04843D4F8021040F2712304
:1050FC000A0A40F271214A43D4F80510090A5943AF
:10510C00904201D8049204E0884201D8049000E057
:10511C000491A07C8DF81700207E012800D000207F
:10512C008DF8140095F8740095F87500202202A9EA
:10513C00284602F025FA0A982862BDF82C00A884AB
:10514C00E07A68B102280BD05FF0010085F84F00BF
:10515C00E0682865208AA5F854000DB0002030BD09
:10516C000020F3E70A4A10B500211170094C606069
:10517C0000F022F810B14FF4487104E0A068002848
:10518C0004D140F223312D20FEF790FC10BD00001D
:10519C0044090020C0000020024901488860704783
:1051AC00405B0000C0000020024908608968096863
:1051BC0008470000C0000020084810B5017811B164
:1051CC000C24204610BD0024046044608460C4603C
:1051DC0001F02EF901F02AF8F3E700004409002051
:1051EC00044910B50978012901D100F06FFB0020AA
:1051FC0010BD0000440900202DE9F0410F000446C9
:10520C0023D004F12000054603F01FFBB0B9A078B1
:10521C00C0F3C00050B3284603F0EEFA0646284609
:10522C0003F013FB301AC0B203F064FB014635489F
:10523C00426811444160284603F025FB284603F0E0
:10524C00E7FA0146204603F0A6FA2F4D94F8566073
:10525C0000216868018003F0B4FA6088132813D029
:10526C0009DC102836D0122809D131E02046BDE8DF
:10527C00F04100F02BBB15280FD01D280DD040F2AB
:10528C0096612D20FEF712FC0021686803F06EF881
:10529C000121686803F095FA20E00121686803F0A9
:1052AC0065F80121686803F08CFA36B104F15701F6
:1052BC00686803F076F8012106E004F15001686893
:1052CC0003F06FF894F84F10686803F070F805E07D
:1052DC00062100E00221686803F048F8204600F03F
:1052EC0003FC60881D2806D0152804D0A28E216BE3
:1052FC00686803F02BF839462046BDE8F04100F011
:10530C00E5B9000044090020C00000202DE9F0415F
:10531C00284D80462878022805D02878032802D00A
:10532C0040F691411FE0244C2068017B09B103F049
:10533C003DFA60680027B8F1000F007800F00F0606
:10534C001FD001F03BFAE0B13946606802F0C4FFAF
:10535C00B8B12A7820683146022A07D02A78032A65
:10536C0004D040F66A412D20FEF7A0FBA2682B78F2
:10537C0052696FF0070606EB8303D2589047064636
:10538C0000E00126A87B18B101F052F800F04EFFA6
:10539C00002E0DD0206803F0C3FA20B1A0688068FD
:1053AC00BDE8F04100472068BDE8F04100F08EBA3E
:1053BC00BDE8F08144090020C000002010B503298D
:1053CC0002D005290AD102E000F026FB03E00449D3
:1053DC00096809B1884708B1002010BD012010BD33
:1053EC00CC000020094A0300106801D000F06EBA0E
:1053FC00002909D09168064A096912786FF00F03E9
:10540C0003EB82028958084770470000C000002057
:10541C004409002070B5044640880025102814D09B
:10542C00144EB07B20B100F021FF402001F010F8A9
:10543C001148406801F082FAA078400713D4E07B51
:10544C00012808D0032806D006E02046BDE87040AD
:10545C000121FFF7D1BE1025002145F00E02237962
:10546C00084601F0F5FA002001F01CF9022030701A
:10547C0070BD000044090020C000002010B5124C83
:10548C00206800F025F8206803F04AFA002820680C
:10549C000BD00E490A78022A0BD00A78032A08D0BE
:1054AC0040F6A5312D20FEF701FBBDE8104000F0C1
:1054BC000DBAA2680978D2686FF0070303EB81017B
:1054CC005158BDE810400847C00000204409002096
:1054DC0010B5017B09B103F069F90548807B002800
:1054EC0005D000F0A5FFBDE8104000F09FBE10BD38
:1054FC00440900202DE9FF5F5A4D04462878E8BB8B
:10550C002078FF2849D04FF00009A5F80C90C5F879
:10551C00049085F8019085F8029084F861904846D3
:10552C0001F018F9504BDFF844A10FCB8DE80F00B8
:10553C00DAF8080040680390684601F0ABF801F017
:10554C006FF900F075FF00F071FE4748401F01F045
:10555C00D1FA4548083801F0D9FA04F12000064682
:10556C0003F091F9304603F053F90146204603F05D
:10557C0012F994F90E0001F0DBF900E00DE021794D
:10558C00002001F013F80126A86050B10F2105206E
:10559C0000F072FFA07E58B905E00C2004B0BDE805
:1055AC00F09F2E705BE0207E10B9A07840072BD5C1
:1055BC0001F071FE83465946606CFBF789FFDFF8FA
:1055CC00B080074690FBF8F108FB11704142584639
:1055DC00FBF74CFF606497FBF8F0216C08442064E7
:1055EC00FFF78AF9216C88420ED8C4E9109B01217F
:1055FC00204603F094F8A078400705D5207E18B11A
:10560C000121204600F042FA94F8481004F14900B8
:10561C0001F064FA94F8740002280AD12246D2E907
:10562C001937D4E90C01C4E90C37C4E9190184F821
:10563C00746094F87500022809D1D4E90E10D4E9ED
:10564C001B23C4E91B10C4E90E2384F87560FFF713
:10565C00B9F90321DAF8040002F062FDA873002006
:10566C009CE7000044090020205B0000C0000020E3
:10567C0040420F0010B50446FFF73CFF002808D14C
:10568C0004480078012803D000212046FFF7B4FD20
:10569C00002010BD440900200A4810B50A490468CE
:1056AC00087800280DD00878022802D00878032842
:1056BC0002D12046FFF70CFF2046BDE8104000F059
:1056CC0005B910BDC0000020440900202DE9F041AF
:1056DC00044627480D46406801F030F9254E042059
:1056EC00307025B3608810282AD004F12000804641
:1056FC00B56803F081F80746404603F0A6F8381A5F
:10570C00401EC0B26188282200F040FA0544A078FF
:10571C00C0F3C00030B17068054403F0EFF82844C2
:10572C00C4F8C40022792946002001F015F96088DC
:10573C00132813D009DC102818D0122809D10DE039
:10574C002179002000F0E6FEF1E7152806D01D288F
:10575C0004D040F61C512D20FEF7A8F92379BDE8A2
:10576C00F04101221146002001F072B9BDE8F08130
:10577C00C00000204409002010B5044600780B46F8
:10578C0084F8A900FF2910D004F1AB02511E184671
:10579C00FFF730F830B194F8AA0040F0020084F81A
:1057AC00AA0011E040F62C711DE010484068017809
:1057BC00C1F3801184F8AA10D0F80310C4F8AB1010
:1057CC00B0F80700A4F8AF0094F926007F2808D0A1
:1057DC0084F8B1007F2084F8260092340120A07553
:1057EC0010BD40F6CE512D20FEF760F9C000002010
:1057FC002DE9F0470446408817468846032906D011
:10580C0000F0010594F8600018B1012002E0C0F32B
:10581C0040050020814600F029FE0646B8F1030F32
:10582C0025D00120804635EA090546D02548807BE5
:10583C0038B102F078FC3870FF2802D0FEF7F4FF84
:10584C000643214D94F84F2068680178C1F380110C
:10585C00914206D1062204F15001C01C01F07EFEDB
:10586C0038B100203978FF2909D0B8B903E00220FB
:10587C00D8E70120F6E7607E88420FD008E038B107
:10588C00696811F8030BC0F3801002F006FF28B111
:10589C000020A178490703D590B90EE00120F8E764
:1058AC0076B9E07B08B1404507D1696811F8030B64
:1058BC00C0F3801002F0F1FE10B10020BDE8F087BB
:1058CC000120FBE744090020C000002070B504460D
:1058DC00806A104D401CA062A87B002620B100F00D
:1058EC00A7FD00F0A3FCAE732E7094F8610008B114
:1058FC0001210AE0607B38B1A16A884204D80121F9
:10590C00204603F022F870BD00212046BDE870400F
:10591C0003F01BB8440900202DE9F843044690F825
:10592C00780090460D468DF80000009800909DF888
:10593C00000010B140F6D93158E084F87A3028884C
:10594C00A4F87C00002B63D1686802F046FCA4F834
:10595C0092002889A4F894006889A4F8960095F818
:10596C006D0184F89800217E04F14906002704F1AA
:10597C00800929B194F84800314602F077FD40B90E
:10598C0094F8620070B194F84800314602F065FD5D
:10599C0040B1D4F84900C4F88600B4F84D00A4F81E
:1059AC008A0003E0C4F88670A4F88A701948B8F12C
:1059BC00FF0F40680178C1F3801184F87F1050F814
:1059CC00031F16D0C4F88C108088A4F890004A46A7
:1059DC0004F17F014046FEF70DFF28B114F87F0F4C
:1059EC0040F0020020700CE040F6FA312D20FEF75A
:1059FC005DF8C4F880108088A4F8840044F88C7F8B
:105A0C00A7802888FEF73CFCBDE8F84302F0FDB9FE
:105A1C00BDE8F883C00000207CB50446FF208DF85B
:105A2C00000001256A4603212046FFF7E1FE28B35A
:105A3C00207B68B194F8A8008DF8040001980190BF
:105A4C009DF8040020B99DF800102046FFF794FE45
:105A5C000C4E002170680180042102F087FC204666
:105A6C0000F042F8A28FA16B706802F0B6FC0649F8
:105A7C0005200870706800F061FF00E000252846E2
:105A8C007CBD0000C00000204409002070B5044615
:105A9C000E46407EFEF77CFE050019D0102102F068
:105AAC00D6FB002814D1012084F8560004F15701CC
:105ABC0032460C46284602F0FEFA2146054C606838
:105ACC0002F06FFC6068BDE87040012102F06FBC11
